{
  "_format": "hh-sol-artifact-1",
  "contractName": "LifeEssentialsClub",
  "sourceName": "contracts/LifeEssentialsClub.sol",
  "abi": [
    {
      "inputs": [
        {
          "internalType": "string",
          "name": "name_",
          "type": "string"
        },
        {
          "internalType": "string",
          "name": "symbol_",
          "type": "string"
        }
      ],
      "stateMutability": "nonpayable",
      "type": "constructor"
    },
    {
      "inputs": [],
      "name": "CheckpointUnorderedInsertion",
      "type": "error"
    },
    {
      "inputs": [],
      "name": "ECDSAInvalidSignature",
      "type": "error"
    },
    {
      "inputs": [
        {
          "internalType": "uint256",
          "name": "length",
          "type": "uint256"
        }
      ],
      "name": "ECDSAInvalidSignatureLength",
      "type": "error"
    },
    {
      "inputs": [
        {
          "internalType": "bytes32",
          "name": "s",
          "type": "bytes32"
        }
      ],
      "name": "ECDSAInvalidSignatureS",
      "type": "error"
    },
    {
      "inputs": [
        {
          "internalType": "uint256",
          "name": "increasedSupply",
          "type": "uint256"
        },
        {
          "internalType": "uint256",
          "name": "cap",
          "type": "uint256"
        }
      ],
      "name": "ERC20ExceededSafeSupply",
      "type": "error"
    },
    {
      "inputs": [
        {
          "internalType": "address",
          "name": "spender",
          "type": "address"
        },
        {
          "internalType": "uint256",
          "name": "allowance",
          "type": "uint256"
        },
        {
          "internalType": "uint256",
          "name": "needed",
          "type": "uint256"
        }
      ],
      "name": "ERC20InsufficientAllowance",
      "type": "error"
    },
    {
      "inputs": [
        {
          "internalType": "address",
          "name": "sender",
          "type": "address"
        },
        {
          "internalType": "uint256",
          "name": "balance",
          "type": "uint256"
        },
        {
          "internalType": "uint256",
          "name": "needed",
          "type": "uint256"
        }
      ],
      "name": "ERC20InsufficientBalance",
      "type": "error"
    },
    {
      "inputs": [
        {
          "internalType": "address",
          "name": "approver",
          "type": "address"
        }
      ],
      "name": "ERC20InvalidApprover",
      "type": "error"
    },
    {
      "inputs": [
        {
          "internalType": "address",
          "name": "receiver",
          "type": "address"
        }
      ],
      "name": "ERC20InvalidReceiver",
      "type": "error"
    },
    {
      "inputs": [
        {
          "internalType": "address",
          "name": "sender",
          "type": "address"
        }
      ],
      "name": "ERC20InvalidSender",
      "type": "error"
    },
    {
      "inputs": [
        {
          "internalType": "address",
          "name": "spender",
          "type": "address"
        }
      ],
      "name": "ERC20InvalidSpender",
      "type": "error"
    },
    {
      "inputs": [
        {
          "internalType": "uint256",
          "name": "deadline",
          "type": "uint256"
        }
      ],
      "name": "ERC2612ExpiredSignature",
      "type": "error"
    },
    {
      "inputs": [
        {
          "internalType": "address",
          "name": "signer",
          "type": "address"
        },
        {
          "internalType": "address",
          "name": "owner",
          "type": "address"
        }
      ],
      "name": "ERC2612InvalidSigner",
      "type": "error"
    },
    {
      "inputs": [
        {
          "internalType": "uint256",
          "name": "timepoint",
          "type": "uint256"
        },
        {
          "internalType": "uint48",
          "name": "clock",
          "type": "uint48"
        }
      ],
      "name": "ERC5805FutureLookup",
      "type": "error"
    },
    {
      "inputs": [],
      "name": "ERC6372InconsistentClock",
      "type": "error"
    },
    {
      "inputs": [
        {
          "internalType": "address",
          "name": "account",
          "type": "address"
        },
        {
          "internalType": "uint256",
          "name": "currentNonce",
          "type": "uint256"
        }
      ],
      "name": "InvalidAccountNonce",
      "type": "error"
    },
    {
      "inputs": [],
      "name": "InvalidShortString",
      "type": "error"
    },
    {
      "inputs": [
        {
          "internalType": "address",
          "name": "owner",
          "type": "address"
        }
      ],
      "name": "OwnableInvalidOwner",
      "type": "error"
    },
    {
      "inputs": [
        {
          "internalType": "address",
          "name": "account",
          "type": "address"
        }
      ],
      "name": "OwnableUnauthorizedAccount",
      "type": "error"
    },
    {
      "inputs": [
        {
          "internalType": "uint8",
          "name": "bits",
          "type": "uint8"
        },
        {
          "internalType": "uint256",
          "name": "value",
          "type": "uint256"
        }
      ],
      "name": "SafeCastOverflowedUintDowncast",
      "type": "error"
    },
    {
      "inputs": [
        {
          "internalType": "string",
          "name": "str",
          "type": "string"
        }
      ],
      "name": "StringTooLong",
      "type": "error"
    },
    {
      "inputs": [
        {
          "internalType": "uint256",
          "name": "expiry",
          "type": "uint256"
        }
      ],
      "name": "VotesExpiredSignature",
      "type": "error"
    },
    {
      "anonymous": false,
      "inputs": [
        {
          "indexed": true,
          "internalType": "address",
          "name": "owner",
          "type": "address"
        },
        {
          "indexed": true,
          "internalType": "address",
          "name": "spender",
          "type": "address"
        },
        {
          "indexed": false,
          "internalType": "uint256",
          "name": "value",
          "type": "uint256"
        }
      ],
      "name": "Approval",
      "type": "event"
    },
    {
      "anonymous": false,
      "inputs": [
        {
          "indexed": true,
          "internalType": "address",
          "name": "delegator",
          "type": "address"
        },
        {
          "indexed": true,
          "internalType": "address",
          "name": "fromDelegate",
          "type": "address"
        },
        {
          "indexed": true,
          "internalType": "address",
          "name": "toDelegate",
          "type": "address"
        }
      ],
      "name": "DelegateChanged",
      "type": "event"
    },
    {
      "anonymous": false,
      "inputs": [
        {
          "indexed": true,
          "internalType": "address",
          "name": "delegate",
          "type": "address"
        },
        {
          "indexed": false,
          "internalType": "uint256",
          "name": "previousVotes",
          "type": "uint256"
        },
        {
          "indexed": false,
          "internalType": "uint256",
          "name": "newVotes",
          "type": "uint256"
        }
      ],
      "name": "DelegateVotesChanged",
      "type": "event"
    },
    {
      "anonymous": false,
      "inputs": [],
      "name": "EIP712DomainChanged",
      "type": "event"
    },
    {
      "anonymous": false,
      "inputs": [
        {
          "indexed": true,
          "internalType": "address",
          "name": "previousOwner",
          "type": "address"
        },
        {
          "indexed": true,
          "internalType": "address",
          "name": "newOwner",
          "type": "address"
        }
      ],
      "name": "OwnershipTransferred",
      "type": "event"
    },
    {
      "anonymous": false,
      "inputs": [
        {
          "indexed": true,
          "internalType": "address",
          "name": "from",
          "type": "address"
        },
        {
          "indexed": true,
          "internalType": "address",
          "name": "to",
          "type": "address"
        },
        {
          "indexed": false,
          "internalType": "uint256",
          "name": "value",
          "type": "uint256"
        }
      ],
      "name": "Transfer",
      "type": "event"
    },
    {
      "inputs": [],
      "name": "CLOCK_MODE",
      "outputs": [
        {
          "internalType": "string",
          "name": "",
          "type": "string"
        }
      ],
      "stateMutability": "view",
      "type": "function"
    },
    {
      "inputs": [],
      "name": "DOMAIN_SEPARATOR",
      "outputs": [
        {
          "internalType": "bytes32",
          "name": "",
          "type": "bytes32"
        }
      ],
      "stateMutability": "view",
      "type": "function"
    },
    {
      "inputs": [
        {
          "internalType": "address",
          "name": "owner",
          "type": "address"
        },
        {
          "internalType": "address",
          "name": "spender",
          "type": "address"
        }
      ],
      "name": "allowance",
      "outputs": [
        {
          "internalType": "uint256",
          "name": "",
          "type": "uint256"
        }
      ],
      "stateMutability": "view",
      "type": "function"
    },
    {
      "inputs": [
        {
          "internalType": "address",
          "name": "spender",
          "type": "address"
        },
        {
          "internalType": "uint256",
          "name": "value",
          "type": "uint256"
        }
      ],
      "name": "approve",
      "outputs": [
        {
          "internalType": "bool",
          "name": "",
          "type": "bool"
        }
      ],
      "stateMutability": "nonpayable",
      "type": "function"
    },
    {
      "inputs": [
        {
          "internalType": "address",
          "name": "account",
          "type": "address"
        }
      ],
      "name": "balanceOf",
      "outputs": [
        {
          "internalType": "uint256",
          "name": "",
          "type": "uint256"
        }
      ],
      "stateMutability": "view",
      "type": "function"
    },
    {
      "inputs": [
        {
          "internalType": "address",
          "name": "account",
          "type": "address"
        },
        {
          "internalType": "uint32",
          "name": "pos",
          "type": "uint32"
        }
      ],
      "name": "checkpoints",
      "outputs": [
        {
          "components": [
            {
              "internalType": "uint48",
              "name": "_key",
              "type": "uint48"
            },
            {
              "internalType": "uint208",
              "name": "_value",
              "type": "uint208"
            }
          ],
          "internalType": "struct Checkpoints.Checkpoint208",
          "name": "",
          "type": "tuple"
        }
      ],
      "stateMutability": "view",
      "type": "function"
    },
    {
      "inputs": [],
      "name": "clock",
      "outputs": [
        {
          "internalType": "uint48",
          "name": "",
          "type": "uint48"
        }
      ],
      "stateMutability": "view",
      "type": "function"
    },
    {
      "inputs": [],
      "name": "decimals",
      "outputs": [
        {
          "internalType": "uint8",
          "name": "",
          "type": "uint8"
        }
      ],
      "stateMutability": "view",
      "type": "function"
    },
    {
      "inputs": [
        {
          "internalType": "address",
          "name": "delegatee",
          "type": "address"
        }
      ],
      "name": "delegate",
      "outputs": [],
      "stateMutability": "nonpayable",
      "type": "function"
    },
    {
      "inputs": [
        {
          "internalType": "address",
          "name": "delegatee",
          "type": "address"
        },
        {
          "internalType": "uint256",
          "name": "nonce",
          "type": "uint256"
        },
        {
          "internalType": "uint256",
          "name": "expiry",
          "type": "uint256"
        },
        {
          "internalType": "uint8",
          "name": "v",
          "type": "uint8"
        },
        {
          "internalType": "bytes32",
          "name": "r",
          "type": "bytes32"
        },
        {
          "internalType": "bytes32",
          "name": "s",
          "type": "bytes32"
        }
      ],
      "name": "delegateBySig",
      "outputs": [],
      "stateMutability": "nonpayable",
      "type": "function"
    },
    {
      "inputs": [
        {
          "internalType": "address",
          "name": "account",
          "type": "address"
        }
      ],
      "name": "delegates",
      "outputs": [
        {
          "internalType": "address",
          "name": "",
          "type": "address"
        }
      ],
      "stateMutability": "view",
      "type": "function"
    },
    {
      "inputs": [],
      "name": "eip712Domain",
      "outputs": [
        {
          "internalType": "bytes1",
          "name": "fields",
          "type": "bytes1"
        },
        {
          "internalType": "string",
          "name": "name",
          "type": "string"
        },
        {
          "internalType": "string",
          "name": "version",
          "type": "string"
        },
        {
          "internalType": "uint256",
          "name": "chainId",
          "type": "uint256"
        },
        {
          "internalType": "address",
          "name": "verifyingContract",
          "type": "address"
        },
        {
          "internalType": "bytes32",
          "name": "salt",
          "type": "bytes32"
        },
        {
          "internalType": "uint256[]",
          "name": "extensions",
          "type": "uint256[]"
        }
      ],
      "stateMutability": "view",
      "type": "function"
    },
    {
      "inputs": [
        {
          "internalType": "uint256",
          "name": "timepoint",
          "type": "uint256"
        }
      ],
      "name": "getPastTotalSupply",
      "outputs": [
        {
          "internalType": "uint256",
          "name": "",
          "type": "uint256"
        }
      ],
      "stateMutability": "view",
      "type": "function"
    },
    {
      "inputs": [
        {
          "internalType": "address",
          "name": "account",
          "type": "address"
        },
        {
          "internalType": "uint256",
          "name": "timepoint",
          "type": "uint256"
        }
      ],
      "name": "getPastVotes",
      "outputs": [
        {
          "internalType": "uint256",
          "name": "",
          "type": "uint256"
        }
      ],
      "stateMutability": "view",
      "type": "function"
    },
    {
      "inputs": [
        {
          "internalType": "address",
          "name": "account",
          "type": "address"
        }
      ],
      "name": "getVotes",
      "outputs": [
        {
          "internalType": "uint256",
          "name": "",
          "type": "uint256"
        }
      ],
      "stateMutability": "view",
      "type": "function"
    },
    {
      "inputs": [
        {
          "internalType": "address",
          "name": "account",
          "type": "address"
        },
        {
          "internalType": "uint256",
          "name": "amount",
          "type": "uint256"
        }
      ],
      "name": "mint",
      "outputs": [],
      "stateMutability": "nonpayable",
      "type": "function"
    },
    {
      "inputs": [],
      "name": "name",
      "outputs": [
        {
          "internalType": "string",
          "name": "",
          "type": "string"
        }
      ],
      "stateMutability": "view",
      "type": "function"
    },
    {
      "inputs": [
        {
          "internalType": "address",
          "name": "owner",
          "type": "address"
        }
      ],
      "name": "nonces",
      "outputs": [
        {
          "internalType": "uint256",
          "name": "",
          "type": "uint256"
        }
      ],
      "stateMutability": "view",
      "type": "function"
    },
    {
      "inputs": [
        {
          "internalType": "address",
          "name": "account",
          "type": "address"
        }
      ],
      "name": "numCheckpoints",
      "outputs": [
        {
          "internalType": "uint32",
          "name": "",
          "type": "uint32"
        }
      ],
      "stateMutability": "view",
      "type": "function"
    },
    {
      "inputs": [],
      "name": "owner",
      "outputs": [
        {
          "internalType": "address",
          "name": "",
          "type": "address"
        }
      ],
      "stateMutability": "view",
      "type": "function"
    },
    {
      "inputs": [
        {
          "internalType": "address",
          "name": "owner",
          "type": "address"
        },
        {
          "internalType": "address",
          "name": "spender",
          "type": "address"
        },
        {
          "internalType": "uint256",
          "name": "value",
          "type": "uint256"
        },
        {
          "internalType": "uint256",
          "name": "deadline",
          "type": "uint256"
        },
        {
          "internalType": "uint8",
          "name": "v",
          "type": "uint8"
        },
        {
          "internalType": "bytes32",
          "name": "r",
          "type": "bytes32"
        },
        {
          "internalType": "bytes32",
          "name": "s",
          "type": "bytes32"
        }
      ],
      "name": "permit",
      "outputs": [],
      "stateMutability": "nonpayable",
      "type": "function"
    },
    {
      "inputs": [],
      "name": "renounceOwnership",
      "outputs": [],
      "stateMutability": "nonpayable",
      "type": "function"
    },
    {
      "inputs": [],
      "name": "symbol",
      "outputs": [
        {
          "internalType": "string",
          "name": "",
          "type": "string"
        }
      ],
      "stateMutability": "view",
      "type": "function"
    },
    {
      "inputs": [],
      "name": "totalSupply",
      "outputs": [
        {
          "internalType": "uint256",
          "name": "",
          "type": "uint256"
        }
      ],
      "stateMutability": "view",
      "type": "function"
    },
    {
      "inputs": [
        {
          "internalType": "address",
          "name": "to",
          "type": "address"
        },
        {
          "internalType": "uint256",
          "name": "value",
          "type": "uint256"
        }
      ],
      "name": "transfer",
      "outputs": [
        {
          "internalType": "bool",
          "name": "",
          "type": "bool"
        }
      ],
      "stateMutability": "nonpayable",
      "type": "function"
    },
    {
      "inputs": [
        {
          "internalType": "address",
          "name": "from",
          "type": "address"
        },
        {
          "internalType": "address",
          "name": "to",
          "type": "address"
        },
        {
          "internalType": "uint256",
          "name": "value",
          "type": "uint256"
        }
      ],
      "name": "transferFrom",
      "outputs": [
        {
          "internalType": "bool",
          "name": "",
          "type": "bool"
        }
      ],
      "stateMutability": "nonpayable",
      "type": "function"
    },
    {
      "inputs": [
        {
          "internalType": "address",
          "name": "newOwner",
          "type": "address"
        }
      ],
      "name": "transferOwnership",
      "outputs": [],
      "stateMutability": "nonpayable",
      "type": "function"
    }
  ],
  "bytecode": "0x6101606040523480156200001257600080fd5b50604051620047403803806200474083398181016040528101906200003891906200055e565b3382806040518060400160405280600181526020017f3100000000000000000000000000000000000000000000000000000000000000815250858581600390816200008491906200082e565b5080600490816200009691906200082e565b505050620000af600583620001d960201b90919060201c565b6101208181525050620000cd600682620001d960201b90919060201c565b6101408181525050818051906020012060e08181525050808051906020012061010081815250504660a081815250506200010c6200023160201b60201c565b608081815250503073ffffffffffffffffffffffffffffffffffffffff1660c08173ffffffffffffffffffffffffffffffffffffffff1681525050505050600073ffffffffffffffffffffffffffffffffffffffff168173ffffffffffffffffffffffffffffffffffffffff1603620001bf5760006040517f1e4fbdf7000000000000000000000000000000000000000000000000000000008152600401620001b691906200095a565b60405180910390fd5b620001d0816200028e60201b60201c565b50505062000b18565b6000602083511015620001ff57620001f7836200035460201b60201c565b90506200022b565b826200021183620003c160201b60201c565b60000190816200022291906200082e565b5060ff60001b90505b92915050565b60007f8b73c3c69bb8fe3d512ecc4cf759cc79239f7b179b0ffacaa9a75d522b39400f60e05161010051463060405160200162000273959493929190620009a3565b60405160208183030381529060405280519060200120905090565b6000600b60009054906101000a900473ffffffffffffffffffffffffffffffffffffffff16905081600b60006101000a81548173ffffffffffffffffffffffffffffffffffffffff021916908373ffffffffffffffffffffffffffffffffffffffff1602179055508173ffffffffffffffffffffffffffffffffffffffff168173ffffffffffffffffffffffffffffffffffffffff167f8be0079c531659141344cd1fd0a4f28419497f9722a3daafe3b4186f6b6457e060405160405180910390a35050565b600080829050601f81511115620003a457826040517f305a27a90000000000000000000000000000000000000000000000000000000081526004016200039b919062000a52565b60405180910390fd5b805181620003b29062000aa8565b60001c1760001b915050919050565b6000819050919050565b6000604051905090565b600080fd5b600080fd5b600080fd5b600080fd5b6000601f19601f8301169050919050565b7f4e487b7100000000000000000000000000000000000000000000000000000000600052604160045260246000fd5b6200043482620003e9565b810181811067ffffffffffffffff82111715620004565762000455620003fa565b5b80604052505050565b60006200046b620003cb565b905062000479828262000429565b919050565b600067ffffffffffffffff8211156200049c576200049b620003fa565b5b620004a782620003e9565b9050602081019050919050565b60005b83811015620004d4578082015181840152602081019050620004b7565b60008484015250505050565b6000620004f7620004f1846200047e565b6200045f565b905082815260208101848484011115620005165762000515620003e4565b5b62000523848285620004b4565b509392505050565b600082601f830112620005435762000542620003df565b5b815162000555848260208601620004e0565b91505092915050565b60008060408385031215620005785762000577620003d5565b5b600083015167ffffffffffffffff811115620005995762000598620003da565b5b620005a7858286016200052b565b925050602083015167ffffffffffffffff811115620005cb57620005ca620003da565b5b620005d9858286016200052b565b9150509250929050565b600081519050919050565b7f4e487b7100000000000000000000000000000000000000000000000000000000600052602260045260246000fd5b600060028204905060018216806200063657607f821691505b6020821081036200064c576200064b620005ee565b5b50919050565b60008190508160005260206000209050919050565b60006020601f8301049050919050565b600082821b905092915050565b600060088302620006b67fffffffffffffffffffffffffffffffffffffffffffffffffffffffffffffffff8262000677565b620006c2868362000677565b95508019841693508086168417925050509392505050565b6000819050919050565b6000819050919050565b60006200070f620007096200070384620006da565b620006e4565b620006da565b9050919050565b6000819050919050565b6200072b83620006ee565b620007436200073a8262000716565b84845462000684565b825550505050565b600090565b6200075a6200074b565b6200076781848462000720565b505050565b5b818110156200078f576200078360008262000750565b6001810190506200076d565b5050565b601f821115620007de57620007a88162000652565b620007b38462000667565b81016020851015620007c3578190505b620007db620007d28562000667565b8301826200076c565b50505b505050565b600082821c905092915050565b60006200080360001984600802620007e3565b1980831691505092915050565b60006200081e8383620007f0565b9150826002028217905092915050565b6200083982620005e3565b67ffffffffffffffff811115620008555762000854620003fa565b5b6200086182546200061d565b6200086e82828562000793565b600060209050601f831160018114620008a6576000841562000891578287015190505b6200089d858262000810565b8655506200090d565b601f198416620008b68662000652565b60005b82811015620008e057848901518255600182019150602085019450602081019050620008b9565b86831015620009005784890151620008fc601f891682620007f0565b8355505b6001600288020188555050505b505050505050565b600073ffffffffffffffffffffffffffffffffffffffff82169050919050565b6000620009428262000915565b9050919050565b620009548162000935565b82525050565b600060208201905062000971600083018462000949565b92915050565b6000819050919050565b6200098c8162000977565b82525050565b6200099d81620006da565b82525050565b600060a082019050620009ba600083018862000981565b620009c9602083018762000981565b620009d8604083018662000981565b620009e7606083018562000992565b620009f6608083018462000949565b9695505050505050565b600082825260208201905092915050565b600062000a1e82620005e3565b62000a2a818562000a00565b935062000a3c818560208601620004b4565b62000a4781620003e9565b840191505092915050565b6000602082019050818103600083015262000a6e818462000a11565b905092915050565b600081519050919050565b6000819050602082019050919050565b600062000a9f825162000977565b80915050919050565b600062000ab58262000a76565b8262000ac18462000a81565b905062000ace8162000a91565b9250602082101562000b115762000b0c7fffffffffffffffffffffffffffffffffffffffffffffffffffffffffffffffff8360200360080262000677565b831692505b5050919050565b60805160a05160c05160e051610100516101205161014051613bcd62000b7360003960006116460152600061160b01526000611a6701526000611a460152600061109e015260006110f40152600061111d0152613bcd6000f3fe608060405234801561001057600080fd5b50600436106101a95760003560e01c8063715018a6116100f95780639ab24eb011610097578063d505accf11610071578063d505accf14610500578063dd62ed3e1461051c578063f1127ed81461054c578063f2fde38b1461057c576101a9565b80639ab24eb014610484578063a9059cbb146104b4578063c3cda520146104e4576101a9565b80638da5cb5b116100d35780638da5cb5b146103fa5780638e539e8c1461041857806391ddadf41461044857806395d89b4114610466576101a9565b8063715018a61461039c5780637ecebe00146103a657806384b0196e146103d6576101a9565b80633a46b1a811610166578063587cde1e11610140578063587cde1e146102f05780635c19a95c146103205780636fcfff451461033c57806370a082311461036c576101a9565b80633a46b1a81461028657806340c10f19146102b65780634bf5d7e9146102d2576101a9565b806306fdde03146101ae578063095ea7b3146101cc57806318160ddd146101fc57806323b872dd1461021a578063313ce5671461024a5780633644e51514610268575b600080fd5b6101b6610598565b6040516101c39190612e77565b60405180910390f35b6101e660048036038101906101e19190612f32565b61062a565b6040516101f39190612f8d565b60405180910390f35b61020461064d565b6040516102119190612fb7565b60405180910390f35b610234600480360381019061022f9190612fd2565b610657565b6040516102419190612f8d565b60405180910390f35b610252610686565b60405161025f9190613041565b60405180910390f35b61027061068f565b60405161027d9190613075565b60405180910390f35b6102a0600480360381019061029b9190612f32565b61069e565b6040516102ad9190612fb7565b60405180910390f35b6102d060048036038101906102cb9190612f32565b610777565b005b6102da61078d565b6040516102e79190612e77565b60405180910390f35b61030a60048036038101906103059190613090565b610821565b60405161031791906130cc565b60405180910390f35b61033a60048036038101906103359190613090565b61088a565b005b61035660048036038101906103519190613090565b6108a4565b6040516103639190613106565b60405180910390f35b61038660048036038101906103819190613090565b6108b6565b6040516103939190612fb7565b60405180910390f35b6103a46108fe565b005b6103c060048036038101906103bb9190613090565b610912565b6040516103cd9190612fb7565b60405180910390f35b6103de610924565b6040516103f1979695949392919061321a565b60405180910390f35b6104026109ce565b60405161040f91906130cc565b60405180910390f35b610432600480360381019061042d919061329e565b6109f8565b60405161043f9190612fb7565b60405180910390f35b610450610a93565b60405161045d91906132ec565b60405180910390f35b61046e610aa2565b60405161047b9190612e77565b60405180910390f35b61049e60048036038101906104999190613090565b610b34565b6040516104ab9190612fb7565b60405180910390f35b6104ce60048036038101906104c99190612f32565b610ba0565b6040516104db9190612f8d565b60405180910390f35b6104fe60048036038101906104f9919061335f565b610bc3565b005b61051a600480360381019061051591906133ec565b610c89565b005b6105366004803603810190610531919061348e565b610dd1565b6040516105439190612fb7565b60405180910390f35b610566600480360381019061056191906134fa565b610e58565b60405161057391906135ad565b60405180910390f35b61059660048036038101906105919190613090565b610e72565b005b6060600380546105a7906135f7565b80601f01602080910402602001604051908101604052809291908181526020018280546105d3906135f7565b80156106205780601f106105f557610100808354040283529160200191610620565b820191906000526020600020905b81548152906001019060200180831161060357829003601f168201915b5050505050905090565b600080610635610ef8565b9050610642818585610f00565b600191505092915050565b6000600254905090565b600080610662610ef8565b905061066f858285610f12565b61067a858585610fa6565b60019150509392505050565b60006012905090565b600061069961109a565b905090565b6000806106a9610a93565b90508065ffffffffffff1683106106f95782816040517fecd3f81e0000000000000000000000000000000000000000000000000000000081526004016106f0929190613628565b60405180910390fd5b61075261070584611151565b600960008773ffffffffffffffffffffffffffffffffffffffff1673ffffffffffffffffffffffffffffffffffffffff1681526020019081526020016000206111ab90919063ffffffff16565b79ffffffffffffffffffffffffffffffffffffffffffffffffffff1691505092915050565b61077f6112a5565b610789828261132c565b5050565b60606107976113ae565b65ffffffffffff166107a7610a93565b65ffffffffffff16146107e6576040517f6ff0714000000000000000000000000000000000000000000000000000000000815260040160405180910390fd5b6040518060400160405280601d81526020017f6d6f64653d626c6f636b6e756d6265722666726f6d3d64656661756c74000000815250905090565b6000600860008373ffffffffffffffffffffffffffffffffffffffff1673ffffffffffffffffffffffffffffffffffffffff16815260200190815260200160002060009054906101000a900473ffffffffffffffffffffffffffffffffffffffff169050919050565b6000610894610ef8565b90506108a081836113be565b5050565b60006108af826114d2565b9050919050565b60008060008373ffffffffffffffffffffffffffffffffffffffff1673ffffffffffffffffffffffffffffffffffffffff168152602001908152602001600020549050919050565b6109066112a5565b610910600061152a565b565b600061091d826115f0565b9050919050565b600060608060008060006060610938611602565b61094061163d565b46306000801b600067ffffffffffffffff81111561096157610960613651565b5b60405190808252806020026020018201604052801561098f5781602001602082028036833780820191505090505b507f0f00000000000000000000000000000000000000000000000000000000000000959493929190965096509650965096509650965090919293949596565b6000600b60009054906101000a900473ffffffffffffffffffffffffffffffffffffffff16905090565b600080610a03610a93565b90508065ffffffffffff168310610a535782816040517fecd3f81e000000000000000000000000000000000000000000000000000000008152600401610a4a929190613628565b60405180910390fd5b610a6f610a5f84611151565b600a6111ab90919063ffffffff16565b79ffffffffffffffffffffffffffffffffffffffffffffffffffff16915050919050565b6000610a9d6113ae565b905090565b606060048054610ab1906135f7565b80601f0160208091040260200160405190810160405280929190818152602001828054610add906135f7565b8015610b2a5780601f10610aff57610100808354040283529160200191610b2a565b820191906000526020600020905b815481529060010190602001808311610b0d57829003601f168201915b5050505050905090565b6000610b7d600960008473ffffffffffffffffffffffffffffffffffffffff1673ffffffffffffffffffffffffffffffffffffffff168152602001908152602001600020611678565b79ffffffffffffffffffffffffffffffffffffffffffffffffffff169050919050565b600080610bab610ef8565b9050610bb8818585610fa6565b600191505092915050565b83421115610c0857836040517f4683af0e000000000000000000000000000000000000000000000000000000008152600401610bff9190612fb7565b60405180910390fd5b6000610c6a610c627fe48329057bfd03d55e49b547132e39cffd9c1820ad7b9d4c5307691425d15adf898989604051602001610c479493929190613680565b604051602081830303815290604052805190602001206116e0565b8585856116fa565b9050610c76818761172a565b610c8081886113be565b50505050505050565b83421115610cce57836040517f62791302000000000000000000000000000000000000000000000000000000008152600401610cc59190612fb7565b60405180910390fd5b60007f6e71edae12b1b97f4d1f60370fef10105fa2faae0126114a169c64845d6126c9888888610cfd8c611782565b89604051602001610d13969594939291906136c5565b6040516020818303038152906040528051906020012090506000610d36826116e0565b90506000610d46828787876116fa565b90508973ffffffffffffffffffffffffffffffffffffffff168173ffffffffffffffffffffffffffffffffffffffff1614610dba57808a6040517f4b800e46000000000000000000000000000000000000000000000000000000008152600401610db1929190613726565b60405180910390fd5b610dc58a8a8a610f00565b50505050505050505050565b6000600160008473ffffffffffffffffffffffffffffffffffffffff1673ffffffffffffffffffffffffffffffffffffffff16815260200190815260200160002060008373ffffffffffffffffffffffffffffffffffffffff1673ffffffffffffffffffffffffffffffffffffffff16815260200190815260200160002054905092915050565b610e60612da9565b610e6a83836117d9565b905092915050565b610e7a6112a5565b600073ffffffffffffffffffffffffffffffffffffffff168173ffffffffffffffffffffffffffffffffffffffff1603610eec5760006040517f1e4fbdf7000000000000000000000000000000000000000000000000000000008152600401610ee391906130cc565b60405180910390fd5b610ef58161152a565b50565b600033905090565b610f0d838383600161183a565b505050565b6000610f1e8484610dd1565b90507fffffffffffffffffffffffffffffffffffffffffffffffffffffffffffffffff8114610fa05781811015610f90578281836040517ffb8f41b2000000000000000000000000000000000000000000000000000000008152600401610f879392919061374f565b60405180910390fd5b610f9f8484848403600061183a565b5b50505050565b600073ffffffffffffffffffffffffffffffffffffffff168373ffffffffffffffffffffffffffffffffffffffff16036110185760006040517f96c6fd1e00000000000000000000000000000000000000000000000000000000815260040161100f91906130cc565b60405180910390fd5b600073ffffffffffffffffffffffffffffffffffffffff168273ffffffffffffffffffffffffffffffffffffffff160361108a5760006040517fec442f0500000000000000000000000000000000000000000000000000000000815260040161108191906130cc565b60405180910390fd5b611095838383611a11565b505050565b60007f000000000000000000000000000000000000000000000000000000000000000073ffffffffffffffffffffffffffffffffffffffff163073ffffffffffffffffffffffffffffffffffffffff1614801561111657507f000000000000000000000000000000000000000000000000000000000000000046145b15611143577f0000000000000000000000000000000000000000000000000000000000000000905061114e565b61114b611a21565b90505b90565b600065ffffffffffff80168211156111a3576030826040517f6dfcc65000000000000000000000000000000000000000000000000000000000815260040161119a9291906137cb565b60405180910390fd5b819050919050565b6000808360000180549050905060008082905060058311156112335760006111d284611ab7565b846111dd9190613823565b90506111ec8760000182611bb0565b60000160009054906101000a900465ffffffffffff1665ffffffffffff168665ffffffffffff16101561122157809150611231565b60018161122e9190613857565b92505b505b600061124487600001878585611bc5565b90506000811461129657611267876000016001836112629190613823565b611bb0565b60000160069054906101000a900479ffffffffffffffffffffffffffffffffffffffffffffffffffff16611299565b60005b94505050505092915050565b6112ad610ef8565b73ffffffffffffffffffffffffffffffffffffffff166112cb6109ce565b73ffffffffffffffffffffffffffffffffffffffff161461132a576112ee610ef8565b6040517f118cdaa700000000000000000000000000000000000000000000000000000000815260040161132191906130cc565b60405180910390fd5b565b600073ffffffffffffffffffffffffffffffffffffffff168273ffffffffffffffffffffffffffffffffffffffff160361139e5760006040517fec442f0500000000000000000000000000000000000000000000000000000000815260040161139591906130cc565b60405180910390fd5b6113aa60008383611a11565b5050565b60006113b943611151565b905090565b60006113c983610821565b905081600860008573ffffffffffffffffffffffffffffffffffffffff1673ffffffffffffffffffffffffffffffffffffffff16815260200190815260200160002060006101000a81548173ffffffffffffffffffffffffffffffffffffffff021916908373ffffffffffffffffffffffffffffffffffffffff1602179055508173ffffffffffffffffffffffffffffffffffffffff168173ffffffffffffffffffffffffffffffffffffffff168473ffffffffffffffffffffffffffffffffffffffff167f3134e8a2e6d97e929a7e54011ea5485d7d196dd5f0ba4d4ef95803e8e3fc257f60405160405180910390a46114cd81836114c886611c3e565b611c50565b505050565b600061152361151e600960008573ffffffffffffffffffffffffffffffffffffffff1673ffffffffffffffffffffffffffffffffffffffff168152602001908152602001600020611ec9565b611eda565b9050919050565b6000600b60009054906101000a900473ffffffffffffffffffffffffffffffffffffffff16905081600b60006101000a81548173ffffffffffffffffffffffffffffffffffffffff021916908373ffffffffffffffffffffffffffffffffffffffff1602179055508173ffffffffffffffffffffffffffffffffffffffff168173ffffffffffffffffffffffffffffffffffffffff167f8be0079c531659141344cd1fd0a4f28419497f9722a3daafe3b4186f6b6457e060405160405180910390a35050565b60006115fb82611f32565b9050919050565b606061163860057f0000000000000000000000000000000000000000000000000000000000000000611f7b90919063ffffffff16565b905090565b606061167360067f0000000000000000000000000000000000000000000000000000000000000000611f7b90919063ffffffff16565b905090565b60008082600001805490509050600081146116d5576116a6836000016001836116a19190613823565b611bb0565b60000160069054906101000a900479ffffffffffffffffffffffffffffffffffffffffffffffffffff166116d8565b60005b915050919050565b60006116f36116ed61109a565b8361202b565b9050919050565b60008060008061170c8888888861206c565b92509250925061171c8282612160565b829350505050949350505050565b600061173583611782565b905080821461177d5782816040517f752d88c000000000000000000000000000000000000000000000000000000000815260040161177492919061388b565b60405180910390fd5b505050565b6000600760008373ffffffffffffffffffffffffffffffffffffffff1673ffffffffffffffffffffffffffffffffffffffff1681526020019081526020016000206000815480929190600101919050559050919050565b6117e1612da9565b61183282600960008673ffffffffffffffffffffffffffffffffffffffff1673ffffffffffffffffffffffffffffffffffffffff1681526020019081526020016000206122c490919063ffffffff16565b905092915050565b600073ffffffffffffffffffffffffffffffffffffffff168473ffffffffffffffffffffffffffffffffffffffff16036118ac5760006040517fe602df050000000000000000000000000000000000000000000000000000000081526004016118a391906130cc565b60405180910390fd5b600073ffffffffffffffffffffffffffffffffffffffff168373ffffffffffffffffffffffffffffffffffffffff160361191e5760006040517f94280d6200000000000000000000000000000000000000000000000000000000815260040161191591906130cc565b60405180910390fd5b81600160008673ffffffffffffffffffffffffffffffffffffffff1673ffffffffffffffffffffffffffffffffffffffff16815260200190815260200160002060008573ffffffffffffffffffffffffffffffffffffffff1673ffffffffffffffffffffffffffffffffffffffff168152602001908152602001600020819055508015611a0b578273ffffffffffffffffffffffffffffffffffffffff168473ffffffffffffffffffffffffffffffffffffffff167f8c5be1e5ebec7d5bd14f71427d1e84f3dd0314c0f7b2291e5b200ac8c7c3b92584604051611a029190612fb7565b60405180910390a35b50505050565b611a1c838383612399565b505050565b60007f8b73c3c69bb8fe3d512ecc4cf759cc79239f7b179b0ffacaa9a75d522b39400f7f00000000000000000000000000000000000000000000000000000000000000007f00000000000000000000000000000000000000000000000000000000000000004630604051602001611a9c9594939291906138b4565b60405160208183030381529060405280519060200120905090565b6000808203611ac95760009050611bab565b60006001611ad68461244a565b901c6001901b90506001818481611af057611aef613907565b5b048201901c90506001818481611b0957611b08613907565b5b048201901c90506001818481611b2257611b21613907565b5b048201901c90506001818481611b3b57611b3a613907565b5b048201901c90506001818481611b5457611b53613907565b5b048201901c90506001818481611b6d57611b6c613907565b5b048201901c90506001818481611b8657611b85613907565b5b048201901c9050611ba781828581611ba157611ba0613907565b5b0461252b565b9150505b919050565b60008260005281602060002001905092915050565b60005b81831015611c33576000611bdc8484612544565b90508465ffffffffffff16611bf18783611bb0565b60000160009054906101000a900465ffffffffffff1665ffffffffffff161115611c1d57809250611c2d565b600181611c2a9190613857565b93505b50611bc8565b819050949350505050565b6000611c49826108b6565b9050919050565b8173ffffffffffffffffffffffffffffffffffffffff168373ffffffffffffffffffffffffffffffffffffffff1614158015611c8c5750600081115b15611ec457600073ffffffffffffffffffffffffffffffffffffffff168373ffffffffffffffffffffffffffffffffffffffff1614611daa57600080611d1b600960008773ffffffffffffffffffffffffffffffffffffffff1673ffffffffffffffffffffffffffffffffffffffff16815260200190815260200160002061256a611d1686612580565b6125ee565b79ffffffffffffffffffffffffffffffffffffffffffffffffffff16915079ffffffffffffffffffffffffffffffffffffffffffffffffffff1691508473ffffffffffffffffffffffffffffffffffffffff167fdec2bacdd2f05b59de34da9b523dff8be42e5e38e818c82fdb0bae774387a7248383604051611d9f929190613936565b60405180910390a250505b600073ffffffffffffffffffffffffffffffffffffffff168273ffffffffffffffffffffffffffffffffffffffff1614611ec357600080611e34600960008673ffffffffffffffffffffffffffffffffffffffff1673ffffffffffffffffffffffffffffffffffffffff16815260200190815260200160002061262e611e2f86612580565b6125ee565b79ffffffffffffffffffffffffffffffffffffffffffffffffffff16915079ffffffffffffffffffffffffffffffffffffffffffffffffffff1691508373ffffffffffffffffffffffffffffffffffffffff167fdec2bacdd2f05b59de34da9b523dff8be42e5e38e818c82fdb0bae774387a7248383604051611eb8929190613936565b60405180910390a250505b5b505050565b600081600001805490509050919050565b600063ffffffff8016821115611f2a576020826040517f6dfcc650000000000000000000000000000000000000000000000000000000008152600401611f2192919061399a565b60405180910390fd5b819050919050565b6000600760008373ffffffffffffffffffffffffffffffffffffffff1673ffffffffffffffffffffffffffffffffffffffff168152602001908152602001600020549050919050565b606060ff60001b8314611f9857611f9183612644565b9050612025565b818054611fa4906135f7565b80601f0160208091040260200160405190810160405280929190818152602001828054611fd0906135f7565b801561201d5780601f10611ff25761010080835404028352916020019161201d565b820191906000526020600020905b81548152906001019060200180831161200057829003601f168201915b505050505090505b92915050565b60006040517f190100000000000000000000000000000000000000000000000000000000000081528360028201528260228201526042812091505092915050565b60008060007f7fffffffffffffffffffffffffffffff5d576e7357a4501ddfe92f46681b20a08460001c11156120ac576000600385925092509250612156565b6000600188888888604051600081526020016040526040516120d194939291906139c3565b6020604051602081039080840390855afa1580156120f3573d6000803e3d6000fd5b505050602060405103519050600073ffffffffffffffffffffffffffffffffffffffff168173ffffffffffffffffffffffffffffffffffffffff160361214757600060016000801b93509350935050612156565b8060008060001b935093509350505b9450945094915050565b6000600381111561217457612173613a08565b5b82600381111561218757612186613a08565b5b03156122c057600160038111156121a1576121a0613a08565b5b8260038111156121b4576121b3613a08565b5b036121eb576040517ff645eedf00000000000000000000000000000000000000000000000000000000815260040160405180910390fd5b600260038111156121ff576121fe613a08565b5b82600381111561221257612211613a08565b5b03612257578060001c6040517ffce698f700000000000000000000000000000000000000000000000000000000815260040161224e9190612fb7565b60405180910390fd5b60038081111561226a57612269613a08565b5b82600381111561227d5761227c613a08565b5b036122bf57806040517fd78bce0c0000000000000000000000000000000000000000000000000000000081526004016122b69190613075565b60405180910390fd5b5b5050565b6122cc612da9565b826000018263ffffffff16815481106122e8576122e7613a37565b5b906000526020600020016040518060400160405290816000820160009054906101000a900465ffffffffffff1665ffffffffffff1665ffffffffffff1681526020016000820160069054906101000a900479ffffffffffffffffffffffffffffffffffffffffffffffffffff1679ffffffffffffffffffffffffffffffffffffffffffffffffffff1679ffffffffffffffffffffffffffffffffffffffffffffffffffff1681525050905092915050565b6123a48383836126b8565b600073ffffffffffffffffffffffffffffffffffffffff168373ffffffffffffffffffffffffffffffffffffffff160361243a5760006123e261064d565b905060006123ee6128dd565b9050808211156124375781816040517f1cb15d2600000000000000000000000000000000000000000000000000000000815260040161242e929190613936565b60405180910390fd5b50505b612445838383612901565b505050565b600080600090506000608084901c111561246c57608083901c92506080810190505b6000604084901c111561248757604083901c92506040810190505b6000602084901c11156124a257602083901c92506020810190505b6000601084901c11156124bd57601083901c92506010810190505b6000600884901c11156124d857600883901c92506008810190505b6000600484901c11156124f357600483901c92506004810190505b6000600284901c111561250e57600283901c92506002810190505b6000600184901c1115612522576001810190505b80915050919050565b600081831061253a578161253c565b825b905092915050565b600060028284186125559190613a66565b8284166125629190613857565b905092915050565b600081836125789190613a97565b905092915050565b600079ffffffffffffffffffffffffffffffffffffffffffffffffffff80168211156125e65760d0826040517f6dfcc6500000000000000000000000000000000000000000000000000000000081526004016125dd929190613b20565b60405180910390fd5b819050919050565b6000806126226125fc610a93565b61261261260888611678565b868863ffffffff16565b876129bb9092919063ffffffff16565b91509150935093915050565b6000818361263c9190613b49565b905092915050565b60606000612651836129d8565b90506000602067ffffffffffffffff8111156126705761266f613651565b5b6040519080825280601f01601f1916602001820160405280156126a25781602001600182028036833780820191505090505b5090508181528360208201528092505050919050565b600073ffffffffffffffffffffffffffffffffffffffff168373ffffffffffffffffffffffffffffffffffffffff160361270a5780600260008282546126fe9190613857565b925050819055506127dd565b60008060008573ffffffffffffffffffffffffffffffffffffffff1673ffffffffffffffffffffffffffffffffffffffff16815260200190815260200160002054905081811015612796578381836040517fe450d38c00000000000000000000000000000000000000000000000000000000815260040161278d9392919061374f565b60405180910390fd5b8181036000808673ffffffffffffffffffffffffffffffffffffffff1673ffffffffffffffffffffffffffffffffffffffff16815260200190815260200160002081905550505b600073ffffffffffffffffffffffffffffffffffffffff168273ffffffffffffffffffffffffffffffffffffffff16036128265780600260008282540392505081905550612873565b806000808473ffffffffffffffffffffffffffffffffffffffff1673ffffffffffffffffffffffffffffffffffffffff168152602001908152602001600020600082825401925050819055505b8173ffffffffffffffffffffffffffffffffffffffff168373ffffffffffffffffffffffffffffffffffffffff167fddf252ad1be2c89b69c2b068fc378daa952ba7f163c4a11628f55a4df523b3ef836040516128d09190612fb7565b60405180910390a3505050565b600079ffffffffffffffffffffffffffffffffffffffffffffffffffff8016905090565b600073ffffffffffffffffffffffffffffffffffffffff168373ffffffffffffffffffffffffffffffffffffffff160361294e5761294b600a61262e61294684612580565b6125ee565b50505b600073ffffffffffffffffffffffffffffffffffffffff168273ffffffffffffffffffffffffffffffffffffffff160361299b57612998600a61256a61299384612580565b6125ee565b50505b6129b66129a784610821565b6129b084610821565b83611c50565b505050565b6000806129cc856000018585612a28565b91509150935093915050565b60008060ff8360001c169050601f811115612a1f576040517fb3512b0c00000000000000000000000000000000000000000000000000000000815260040160405180910390fd5b80915050919050565b6000806000858054905090506000811115612cb9576000612a5587600184612a509190613823565b611bb0565b6040518060400160405290816000820160009054906101000a900465ffffffffffff1665ffffffffffff1665ffffffffffff1681526020016000820160069054906101000a900479ffffffffffffffffffffffffffffffffffffffffffffffffffff1679ffffffffffffffffffffffffffffffffffffffffffffffffffff1679ffffffffffffffffffffffffffffffffffffffffffffffffffff168152505090508565ffffffffffff16816000015165ffffffffffff161115612b44576040517f2520601d00000000000000000000000000000000000000000000000000000000815260040160405180910390fd5b8565ffffffffffff16816000015165ffffffffffff1603612bc85784612b7688600185612b719190613823565b611bb0565b60000160066101000a81548179ffffffffffffffffffffffffffffffffffffffffffffffffffff021916908379ffffffffffffffffffffffffffffffffffffffffffffffffffff160217905550612ca8565b8660405180604001604052808865ffffffffffff1681526020018779ffffffffffffffffffffffffffffffffffffffffffffffffffff168152509080600181540180825580915050600190039060005260206000200160009091909190915060008201518160000160006101000a81548165ffffffffffff021916908365ffffffffffff16021790555060208201518160000160066101000a81548179ffffffffffffffffffffffffffffffffffffffffffffffffffff021916908379ffffffffffffffffffffffffffffffffffffffffffffffffffff16021790555050505b806020015185935093505050612da1565b8560405180604001604052808765ffffffffffff1681526020018679ffffffffffffffffffffffffffffffffffffffffffffffffffff168152509080600181540180825580915050600190039060005260206000200160009091909190915060008201518160000160006101000a81548165ffffffffffff021916908365ffffffffffff16021790555060208201518160000160066101000a81548179ffffffffffffffffffffffffffffffffffffffffffffffffffff021916908379ffffffffffffffffffffffffffffffffffffffffffffffffffff160217905550505060008492509250505b935093915050565b6040518060400160405280600065ffffffffffff168152602001600079ffffffffffffffffffffffffffffffffffffffffffffffffffff1681525090565b600081519050919050565b600082825260208201905092915050565b60005b83811015612e21578082015181840152602081019050612e06565b60008484015250505050565b6000601f19601f8301169050919050565b6000612e4982612de7565b612e538185612df2565b9350612e63818560208601612e03565b612e6c81612e2d565b840191505092915050565b60006020820190508181036000830152612e918184612e3e565b905092915050565b600080fd5b600073ffffffffffffffffffffffffffffffffffffffff82169050919050565b6000612ec982612e9e565b9050919050565b612ed981612ebe565b8114612ee457600080fd5b50565b600081359050612ef681612ed0565b92915050565b6000819050919050565b612f0f81612efc565b8114612f1a57600080fd5b50565b600081359050612f2c81612f06565b92915050565b60008060408385031215612f4957612f48612e99565b5b6000612f5785828601612ee7565b9250506020612f6885828601612f1d565b9150509250929050565b60008115159050919050565b612f8781612f72565b82525050565b6000602082019050612fa26000830184612f7e565b92915050565b612fb181612efc565b82525050565b6000602082019050612fcc6000830184612fa8565b92915050565b600080600060608486031215612feb57612fea612e99565b5b6000612ff986828701612ee7565b935050602061300a86828701612ee7565b925050604061301b86828701612f1d565b9150509250925092565b600060ff82169050919050565b61303b81613025565b82525050565b60006020820190506130566000830184613032565b92915050565b6000819050919050565b61306f8161305c565b82525050565b600060208201905061308a6000830184613066565b92915050565b6000602082840312156130a6576130a5612e99565b5b60006130b484828501612ee7565b91505092915050565b6130c681612ebe565b82525050565b60006020820190506130e160008301846130bd565b92915050565b600063ffffffff82169050919050565b613100816130e7565b82525050565b600060208201905061311b60008301846130f7565b92915050565b60007fff0000000000000000000000000000000000000000000000000000000000000082169050919050565b61315681613121565b82525050565b600081519050919050565b600082825260208201905092915050565b6000819050602082019050919050565b61319181612efc565b82525050565b60006131a38383613188565b60208301905092915050565b6000602082019050919050565b60006131c78261315c565b6131d18185613167565b93506131dc83613178565b8060005b8381101561320d5781516131f48882613197565b97506131ff836131af565b9250506001810190506131e0565b5085935050505092915050565b600060e08201905061322f600083018a61314d565b81810360208301526132418189612e3e565b905081810360408301526132558188612e3e565b90506132646060830187612fa8565b61327160808301866130bd565b61327e60a0830185613066565b81810360c083015261329081846131bc565b905098975050505050505050565b6000602082840312156132b4576132b3612e99565b5b60006132c284828501612f1d565b91505092915050565b600065ffffffffffff82169050919050565b6132e6816132cb565b82525050565b600060208201905061330160008301846132dd565b92915050565b61331081613025565b811461331b57600080fd5b50565b60008135905061332d81613307565b92915050565b61333c8161305c565b811461334757600080fd5b50565b60008135905061335981613333565b92915050565b60008060008060008060c0878903121561337c5761337b612e99565b5b600061338a89828a01612ee7565b965050602061339b89828a01612f1d565b95505060406133ac89828a01612f1d565b94505060606133bd89828a0161331e565b93505060806133ce89828a0161334a565b92505060a06133df89828a0161334a565b9150509295509295509295565b600080600080600080600060e0888a03121561340b5761340a612e99565b5b60006134198a828b01612ee7565b975050602061342a8a828b01612ee7565b965050604061343b8a828b01612f1d565b955050606061344c8a828b01612f1d565b945050608061345d8a828b0161331e565b93505060a061346e8a828b0161334a565b92505060c061347f8a828b0161334a565b91505092959891949750929550565b600080604083850312156134a5576134a4612e99565b5b60006134b385828601612ee7565b92505060206134c485828601612ee7565b9150509250929050565b6134d7816130e7565b81146134e257600080fd5b50565b6000813590506134f4816134ce565b92915050565b6000806040838503121561351157613510612e99565b5b600061351f85828601612ee7565b9250506020613530858286016134e5565b9150509250929050565b613543816132cb565b82525050565b600079ffffffffffffffffffffffffffffffffffffffffffffffffffff82169050919050565b61357881613549565b82525050565b604082016000820151613594600085018261353a565b5060208201516135a7602085018261356f565b50505050565b60006040820190506135c2600083018461357e565b92915050565b7f4e487b7100000000000000000000000000000000000000000000000000000000600052602260045260246000fd5b6000600282049050600182168061360f57607f821691505b602082108103613622576136216135c8565b5b50919050565b600060408201905061363d6000830185612fa8565b61364a60208301846132dd565b9392505050565b7f4e487b7100000000000000000000000000000000000000000000000000000000600052604160045260246000fd5b60006080820190506136956000830187613066565b6136a260208301866130bd565b6136af6040830185612fa8565b6136bc6060830184612fa8565b95945050505050565b600060c0820190506136da6000830189613066565b6136e760208301886130bd565b6136f460408301876130bd565b6137016060830186612fa8565b61370e6080830185612fa8565b61371b60a0830184612fa8565b979650505050505050565b600060408201905061373b60008301856130bd565b61374860208301846130bd565b9392505050565b600060608201905061376460008301866130bd565b6137716020830185612fa8565b61377e6040830184612fa8565b949350505050565b6000819050919050565b6000819050919050565b60006137b56137b06137ab84613786565b613790565b613025565b9050919050565b6137c58161379a565b82525050565b60006040820190506137e060008301856137bc565b6137ed6020830184612fa8565b9392505050565b7f4e487b7100000000000000000000000000000000000000000000000000000000600052601160045260246000fd5b600061382e82612efc565b915061383983612efc565b9250828203905081811115613851576138506137f4565b5b92915050565b600061386282612efc565b915061386d83612efc565b9250828201905080821115613885576138846137f4565b5b92915050565b60006040820190506138a060008301856130bd565b6138ad6020830184612fa8565b9392505050565b600060a0820190506138c96000830188613066565b6138d66020830187613066565b6138e36040830186613066565b6138f06060830185612fa8565b6138fd60808301846130bd565b9695505050505050565b7f4e487b7100000000000000000000000000000000000000000000000000000000600052601260045260246000fd5b600060408201905061394b6000830185612fa8565b6139586020830184612fa8565b9392505050565b6000819050919050565b600061398461397f61397a8461395f565b613790565b613025565b9050919050565b61399481613969565b82525050565b60006040820190506139af600083018561398b565b6139bc6020830184612fa8565b9392505050565b60006080820190506139d86000830187613066565b6139e56020830186613032565b6139f26040830185613066565b6139ff6060830184613066565b95945050505050565b7f4e487b7100000000000000000000000000000000000000000000000000000000600052602160045260246000fd5b7f4e487b7100000000000000000000000000000000000000000000000000000000600052603260045260246000fd5b6000613a7182612efc565b9150613a7c83612efc565b925082613a8c57613a8b613907565b5b828204905092915050565b6000613aa282613549565b9150613aad83613549565b9250828203905079ffffffffffffffffffffffffffffffffffffffffffffffffffff811115613adf57613ade6137f4565b5b92915050565b6000819050919050565b6000613b0a613b05613b0084613ae5565b613790565b613025565b9050919050565b613b1a81613aef565b82525050565b6000604082019050613b356000830185613b11565b613b426020830184612fa8565b9392505050565b6000613b5482613549565b9150613b5f83613549565b9250828201905079ffffffffffffffffffffffffffffffffffffffffffffffffffff811115613b9157613b906137f4565b5b9291505056fea26469706673582212209b1fc9ca7ceb74b7fc16d9214cf460c6f2cde49dda8d1e5dbe56226ac453011564736f6c63430008180033",
  "linkReferences": {},
  "deployedLinkReferences": {}
}